{"abi":[{"type":"constructor","inputs":[{"name":"fts","type":"address","internalType":"address"},{"name":"wxfi","type":"address","internalType":"address"}],"stateMutability":"nonpayable"},{"type":"receive","stateMutability":"payable"},{"type":"function","name":"MINIMUM_LIQUIDITY","inputs":[],"outputs":[{"name":"","type":"uint256","internalType":"uint256"}],"stateMutability":"view"},{"type":"function","name":"WXFI","inputs":[],"outputs":[{"name":"","type":"address","internalType":"address"}],"stateMutability":"view"},{"type":"function","name":"addLiquidity","inputs":[{"name":"tokenA","type":"address","internalType":"address"},{"name":"tokenB","type":"address","internalType":"address"},{"name":"amountADesired","type":"uint256","internalType":"uint256"},{"name":"amountBDesired","type":"uint256","internalType":"uint256"},{"name":"amountAMin","type":"uint256","internalType":"uint256"},{"name":"amountBMin","type":"uint256","internalType":"uint256"},{"name":"to","type":"address","internalType":"address"},{"name":"deadline","type":"uint256","internalType":"uint256"}],"outputs":[{"name":"amountA","type":"uint256","internalType":"uint256"},{"name":"amountB","type":"uint256","internalType":"uint256"},{"name":"liquidity","type":"uint256","internalType":"uint256"}],"stateMutability":"nonpayable"},{"type":"function","name":"addLiquidityXFI","inputs":[{"name":"token","type":"address","internalType":"address"},{"name":"amountTokenDesired","type":"uint256","internalType":"uint256"},{"name":"amountTokenMin","type":"uint256","internalType":"uint256"},{"name":"amountXFIMin","type":"uint256","internalType":"uint256"},{"name":"to","type":"address","internalType":"address"},{"name":"deadline","type":"uint256","internalType":"uint256"}],"outputs":[{"name":"amountToken","type":"uint256","internalType":"uint256"},{"name":"amountXFI","type":"uint256","internalType":"uint256"},{"name":"liquidity","type":"uint256","internalType":"uint256"}],"stateMutability":"payable"},{"type":"function","name":"allPairs","inputs":[{"name":"","type":"uint256","internalType":"uint256"}],"outputs":[{"name":"","type":"bytes32","internalType":"bytes32"}],"stateMutability":"view"},{"type":"function","name":"allPairsLength","inputs":[],"outputs":[{"name":"","type":"uint256","internalType":"uint256"}],"stateMutability":"view"},{"type":"function","name":"allowance","inputs":[{"name":"id","type":"bytes32","internalType":"bytes32"},{"name":"owner","type":"address","internalType":"address"},{"name":"spender","type":"address","internalType":"address"}],"outputs":[{"name":"","type":"uint256","internalType":"uint256"}],"stateMutability":"view"},{"type":"function","name":"approve","inputs":[{"name":"id","type":"bytes32","internalType":"bytes32"},{"name":"spender","type":"address","internalType":"address"},{"name":"amount","type":"uint256","internalType":"uint256"}],"outputs":[{"name":"","type":"bool","internalType":"bool"}],"stateMutability":"nonpayable"},{"type":"function","name":"balanceOf","inputs":[{"name":"id","type":"bytes32","internalType":"bytes32"},{"name":"owner","type":"address","internalType":"address"}],"outputs":[{"name":"","type":"uint256","internalType":"uint256"}],"stateMutability":"view"},{"type":"function","name":"feeTo","inputs":[],"outputs":[{"name":"","type":"address","internalType":"address"}],"stateMutability":"view"},{"type":"function","name":"feeToSetter","inputs":[],"outputs":[{"name":"","type":"address","internalType":"address"}],"stateMutability":"view"},{"type":"function","name":"getAmountIn","inputs":[{"name":"amountOut","type":"uint256","internalType":"uint256"},{"name":"path0","type":"address","internalType":"address"},{"name":"path1","type":"address","internalType":"address"}],"outputs":[{"name":"amountIn","type":"uint256","internalType":"uint256"},{"name":"correctedFee","type":"uint256","internalType":"uint256"}],"stateMutability":"view"},{"type":"function","name":"getAmountOut","inputs":[{"name":"amountIn","type":"uint256","internalType":"uint256"},{"name":"path0","type":"address","internalType":"address"},{"name":"path1","type":"address","internalType":"address"}],"outputs":[{"name":"amountOut","type":"uint256","internalType":"uint256"},{"name":"correctedFee","type":"uint256","internalType":"uint256"}],"stateMutability":"view"},{"type":"function","name":"getReserves","inputs":[{"name":"pairID","type":"bytes32","internalType":"bytes32"}],"outputs":[{"name":"reserve0","type":"uint112","internalType":"uint112"},{"name":"reserve1","type":"uint112","internalType":"uint112"},{"name":"blockTimestampLast","type":"uint32","internalType":"uint32"}],"stateMutability":"view"},{"type":"function","name":"locked","inputs":[],"outputs":[{"name":"","type":"uint256","internalType":"uint256"}],"stateMutability":"view"},{"type":"function","name":"name","inputs":[{"name":"pairID","type":"bytes32","internalType":"bytes32"}],"outputs":[{"name":"","type":"string","internalType":"string"}],"stateMutability":"view"},{"type":"function","name":"owner","inputs":[],"outputs":[{"name":"","type":"address","internalType":"address"}],"stateMutability":"view"},{"type":"function","name":"pairData","inputs":[{"name":"pairID","type":"bytes32","internalType":"bytes32"}],"outputs":[{"name":"reserve0","type":"uint112","internalType":"uint112"},{"name":"reserve1","type":"uint112","internalType":"uint112"},{"name":"price0CumulativeLast","type":"uint256","internalType":"uint256"},{"name":"price1CumulativeLast","type":"uint256","internalType":"uint256"},{"name":"kLast","type":"uint256","internalType":"uint256"},{"name":"blockTimestampLast","type":"uint32","internalType":"uint32"}],"stateMutability":"view"},{"type":"function","name":"quote","inputs":[{"name":"amountA","type":"uint256","internalType":"uint256"},{"name":"reserveA","type":"uint256","internalType":"uint256"},{"name":"reserveB","type":"uint256","internalType":"uint256"}],"outputs":[{"name":"","type":"uint256","internalType":"uint256"}],"stateMutability":"pure"},{"type":"function","name":"removeLiquidity","inputs":[{"name":"tokenA","type":"address","internalType":"address"},{"name":"tokenB","type":"address","internalType":"address"},{"name":"liquidity","type":"uint256","internalType":"uint256"},{"name":"amountAMin","type":"uint256","internalType":"uint256"},{"name":"amountBMin","type":"uint256","internalType":"uint256"},{"name":"to","type":"address","internalType":"address"},{"name":"deadline","type":"uint256","internalType":"uint256"}],"outputs":[{"name":"amountTokenA","type":"uint256","internalType":"uint256"},{"name":"amountTokenB","type":"uint256","internalType":"uint256"}],"stateMutability":"nonpayable"},{"type":"function","name":"removeLiquidityXFI","inputs":[{"name":"token","type":"address","internalType":"address"},{"name":"liquidity","type":"uint256","internalType":"uint256"},{"name":"amountTokenMin","type":"uint256","internalType":"uint256"},{"name":"amountXFIMin","type":"uint256","internalType":"uint256"},{"name":"to","type":"address","internalType":"address"},{"name":"deadline","type":"uint256","internalType":"uint256"}],"outputs":[{"name":"amountToken","type":"uint256","internalType":"uint256"},{"name":"amountXFI","type":"uint256","internalType":"uint256"}],"stateMutability":"nonpayable"},{"type":"function","name":"removeLiquidityXFISupportingFOT","inputs":[{"name":"token","type":"address","internalType":"address"},{"name":"liquidity","type":"uint256","internalType":"uint256"},{"name":"amountTokenMin","type":"uint256","internalType":"uint256"},{"name":"amountXFIMin","type":"uint256","internalType":"uint256"},{"name":"to","type":"address","internalType":"address"},{"name":"deadline","type":"uint256","internalType":"uint256"}],"outputs":[{"name":"amountXFI","type":"uint256","internalType":"uint256"}],"stateMutability":"nonpayable"},{"type":"function","name":"setFeeTo","inputs":[{"name":"_feeTo","type":"address","internalType":"address"}],"outputs":[],"stateMutability":"nonpayable"},{"type":"function","name":"setFeeToSetter","inputs":[{"name":"_feeToSetter","type":"address","internalType":"address"}],"outputs":[],"stateMutability":"nonpayable"},{"type":"function","name":"skim","inputs":[{"name":"to","type":"address","internalType":"address"},{"name":"tokenA","type":"address","internalType":"address"},{"name":"tokenB","type":"address","internalType":"address"}],"outputs":[],"stateMutability":"nonpayable"},{"type":"function","name":"swapExactTokenForToken","inputs":[{"name":"amountIn","type":"uint256","internalType":"uint256"},{"name":"amountOutMin","type":"uint256","internalType":"uint256"},{"name":"path0","type":"address","internalType":"address"},{"name":"path1","type":"address","internalType":"address"},{"name":"to","type":"address","internalType":"address"},{"name":"deadline","type":"uint256","internalType":"uint256"}],"outputs":[{"name":"amount","type":"uint256","internalType":"uint256"},{"name":"correctedFee","type":"uint256","internalType":"uint256"}],"stateMutability":"nonpayable"},{"type":"function","name":"swapExactTokenForTokenSupportingFOT","inputs":[{"name":"amountIn","type":"uint256","internalType":"uint256"},{"name":"amountOutMin","type":"uint256","internalType":"uint256"},{"name":"path0","type":"address","internalType":"address"},{"name":"path1","type":"address","internalType":"address"},{"name":"to","type":"address","internalType":"address"},{"name":"deadline","type":"uint256","internalType":"uint256"}],"outputs":[],"stateMutability":"nonpayable"},{"type":"function","name":"swapExactTokenForXFI","inputs":[{"name":"amountIn","type":"uint256","internalType":"uint256"},{"name":"amountOutMin","type":"uint256","internalType":"uint256"},{"name":"path0","type":"address","internalType":"address"},{"name":"path1","type":"address","internalType":"address"},{"name":"to","type":"address","internalType":"address"},{"name":"deadline","type":"uint256","internalType":"uint256"}],"outputs":[{"name":"amount","type":"uint256","internalType":"uint256"},{"name":"correctedFee","type":"uint256","internalType":"uint256"}],"stateMutability":"nonpayable"},{"type":"function","name":"swapExactTokenForXFISupportingFOT","inputs":[{"name":"amountIn","type":"uint256","internalType":"uint256"},{"name":"amountOutMin","type":"uint256","internalType":"uint256"},{"name":"path0","type":"address","internalType":"address"},{"name":"path1","type":"address","internalType":"address"},{"name":"to","type":"address","internalType":"address"},{"name":"deadline","type":"uint256","internalType":"uint256"}],"outputs":[],"stateMutability":"nonpayable"},{"type":"function","name":"swapExactXFIForToken","inputs":[{"name":"amountOutMin","type":"uint256","internalType":"uint256"},{"name":"path0","type":"address","internalType":"address"},{"name":"path1","type":"address","internalType":"address"},{"name":"to","type":"address","internalType":"address"},{"name":"deadline","type":"uint256","internalType":"uint256"}],"outputs":[{"name":"amount","type":"uint256","internalType":"uint256"},{"name":"correctedFee","type":"uint256","internalType":"uint256"}],"stateMutability":"payable"},{"type":"function","name":"swapExactXFIForTokenSupportingFOT","inputs":[{"name":"amountOutMin","type":"uint256","internalType":"uint256"},{"name":"path0","type":"address","internalType":"address"},{"name":"path1","type":"address","internalType":"address"},{"name":"to","type":"address","internalType":"address"},{"name":"deadline","type":"uint256","internalType":"uint256"}],"outputs":[],"stateMutability":"payable"},{"type":"function","name":"swapTokenForExactToken","inputs":[{"name":"amountOut","type":"uint256","internalType":"uint256"},{"name":"amountInMax","type":"uint256","internalType":"uint256"},{"name":"path0","type":"address","internalType":"address"},{"name":"path1","type":"address","internalType":"address"},{"name":"to","type":"address","internalType":"address"},{"name":"deadline","type":"uint256","internalType":"uint256"}],"outputs":[{"name":"amount","type":"uint256","internalType":"uint256"},{"name":"correctedFee","type":"uint256","internalType":"uint256"}],"stateMutability":"nonpayable"},{"type":"function","name":"swapTokenForExactXFI","inputs":[{"name":"amountOut","type":"uint256","internalType":"uint256"},{"name":"amountInMax","type":"uint256","internalType":"uint256"},{"name":"path0","type":"address","internalType":"address"},{"name":"path1","type":"address","internalType":"address"},{"name":"to","type":"address","internalType":"address"},{"name":"deadline","type":"uint256","internalType":"uint256"}],"outputs":[{"name":"amount","type":"uint256","internalType":"uint256"},{"name":"correctedFee","type":"uint256","internalType":"uint256"}],"stateMutability":"nonpayable"},{"type":"function","name":"swapXFIForExactToken","inputs":[{"name":"amountOut","type":"uint256","internalType":"uint256"},{"name":"path0","type":"address","internalType":"address"},{"name":"path1","type":"address","internalType":"address"},{"name":"to","type":"address","internalType":"address"},{"name":"deadline","type":"uint256","internalType":"uint256"}],"outputs":[{"name":"amount","type":"uint256","internalType":"uint256"},{"name":"correctedFee","type":"uint256","internalType":"uint256"}],"stateMutability":"payable"},{"type":"function","name":"symbol","inputs":[{"name":"pairID","type":"bytes32","internalType":"bytes32"}],"outputs":[{"name":"","type":"string","internalType":"string"}],"stateMutability":"view"},{"type":"function","name":"sync","inputs":[{"name":"tokenA","type":"address","internalType":"address"},{"name":"tokenB","type":"address","internalType":"address"}],"outputs":[],"stateMutability":"nonpayable"},{"type":"function","name":"totalSupply","inputs":[{"name":"id","type":"bytes32","internalType":"bytes32"}],"outputs":[{"name":"","type":"uint256","internalType":"uint256"}],"stateMutability":"view"},{"type":"function","name":"transfer","inputs":[{"name":"id","type":"bytes32","internalType":"bytes32"},{"name":"to","type":"address","internalType":"address"},{"name":"amount","type":"uint256","internalType":"uint256"}],"outputs":[{"name":"","type":"bool","internalType":"bool"}],"stateMutability":"nonpayable"},{"type":"function","name":"transferFrom","inputs":[{"name":"id","type":"bytes32","internalType":"bytes32"},{"name":"from","type":"address","internalType":"address"},{"name":"to","type":"address","internalType":"address"},{"name":"amount","type":"uint256","internalType":"uint256"}],"outputs":[{"name":"","type":"bool","internalType":"bool"}],"stateMutability":"nonpayable"},{"type":"event","name":"Approval","inputs":[{"name":"id","type":"bytes32","indexed":false,"internalType":"bytes32"},{"name":"owner","type":"address","indexed":true,"internalType":"address"},{"name":"spender","type":"address","indexed":true,"internalType":"address"},{"name":"amount","type":"uint256","indexed":true,"internalType":"uint256"}],"anonymous":false},{"type":"event","name":"Burn","inputs":[{"name":"sender","type":"address","indexed":true,"internalType":"address"},{"name":"amount0","type":"uint256","indexed":false,"internalType":"uint256"},{"name":"amount1","type":"uint256","indexed":false,"internalType":"uint256"},{"name":"to","type":"address","indexed":true,"internalType":"address"}],"anonymous":false},{"type":"event","name":"Mint","inputs":[{"name":"sender","type":"address","indexed":true,"internalType":"address"},{"name":"amount0","type":"uint256","indexed":false,"internalType":"uint256"},{"name":"amount1","type":"uint256","indexed":false,"internalType":"uint256"}],"anonymous":false},{"type":"event","name":"PairInitialized","inputs":[{"name":"token0","type":"address","indexed":true,"internalType":"address"},{"name":"token1","type":"address","indexed":true,"internalType":"address"},{"name":"pairID","type":"bytes32","indexed":false,"internalType":"bytes32"},{"name":"totalPairs","type":"uint256","indexed":false,"internalType":"uint256"}],"anonymous":false},{"type":"event","name":"Swap","inputs":[{"name":"sender","type":"address","indexed":true,"internalType":"address"},{"name":"amount0In","type":"uint256","indexed":false,"internalType":"uint256"},{"name":"amount1In","type":"uint256","indexed":false,"internalType":"uint256"},{"name":"amount0Out","type":"uint256","indexed":false,"internalType":"uint256"},{"name":"amount1Out","type":"uint256","indexed":false,"internalType":"uint256"},{"name":"to","type":"address","indexed":true,"internalType":"address"}],"anonymous":false},{"type":"event","name":"Sync","inputs":[{"name":"reserve0","type":"uint112","indexed":false,"internalType":"uint112"},{"name":"reserve1","type":"uint112","indexed":false,"internalType":"uint112"}],"anonymous":false},{"type":"event","name":"Transfer","inputs":[{"name":"id","type":"bytes32","indexed":false,"internalType":"bytes32"},{"name":"caller","type":"address","indexed":false,"internalType":"address"},{"name":"from","type":"address","indexed":true,"internalType":"address"},{"name":"to","type":"address","indexed":true,"internalType":"address"},{"name":"amount","type":"uint256","indexed":true,"internalType":"uint256"}],"anonymous":false},{"type":"error","name":"PRBMath_MulDiv18_Overflow","inputs":[{"name":"x","type":"uint256","internalType":"uint256"},{"name":"y","type":"uint256","internalType":"uint256"}]},{"type":"error","name":"PRBMath_MulDiv_Overflow","inputs":[{"name":"x","type":"uint256","internalType":"uint256"},{"name":"y","type":"uint256","internalType":"uint256"},{"name":"denominator","type":"uint256","internalType":"uint256"}]},{"type":"error","name":"PRBMath_SD59x18_Div_InputTooSmall","inputs":[]},{"type":"error","name":"PRBMath_SD59x18_Div_Overflow","inputs":[{"name":"x","type":"int256","internalType":"SD59x18"},{"name":"y","type":"int256","internalType":"SD59x18"}]},{"type":"error","name":"PRBMath_SD59x18_Exp2_InputTooBig","inputs":[{"name":"x","type":"int256","internalType":"SD59x18"}]},{"type":"error","name":"PRBMath_SD59x18_Log_InputTooSmall","inputs":[{"name":"x","type":"int256","internalType":"SD59x18"}]},{"type":"error","name":"PRBMath_SD59x18_Mul_InputTooSmall","inputs":[]},{"type":"error","name":"PRBMath_SD59x18_Mul_Overflow","inputs":[{"name":"x","type":"int256","internalType":"SD59x18"},{"name":"y","type":"int256","internalType":"SD59x18"}]}],"bytecode":{"object":"0x60a06040523480156200001157600080fd5b5060405162005ec838038062005ec88339810160408190526200003491620000e2565b600580546001600160a01b03199081163317909155600780546001600160a01b03858116919093161790558116620000b25760405162461bcd60e51b815260206004820152601560248201527f446566744445583a205a45524f5f414444524553530000000000000000000000604482015260640160405180910390fd5b6001600160a01b0316608052506200011a565b80516001600160a01b0381168114620000dd57600080fd5b919050565b60008060408385031215620000f657600080fd5b6200010183620000c5565b91506200011160208401620000c5565b90509250929050565b608051615cf1620001d76000396000818161024401528181610762015281816109000152818161098101528181610a5e01528181610aaf01528181610e0b01528181610f0e01528181611032015281816110bb015281816113940152818161179d0152818161181e01528181611ed901528181611f1f015281816124fa015281816131ca01528181613236015281816132b90152818161332501528181613f8201528181613fd90152818161407201526140c90152615cf16000f3fe6080604052600436106102345760003560e01c8063691f34311161012e578063baa2abde116100ab578063db9528d81161006f578063db9528d814610750578063e88a317814610784578063e8e33700146107cf578063f46901ed146107ef578063f851e15a1461080f57600080fd5b8063baa2abde146106ba578063bf1ed1eb146106da578063c2038236146106fa578063ce75e1581461071a578063cf3090121461073a57600080fd5b8063a2e74af6116100f2578063a2e74af6146105eb578063a4a9e9881461060b578063ad615dec14610657578063b524abcf14610677578063ba9a7a56146106a457600080fd5b8063691f3431146105305780636baa03301461055d5780636ed3c0ed1461057d57806374d7156a1461059d5780638da5cb5b146105cb57600080fd5b80632ad3fc54116101bc578063500d2f6d11610180578063500d2f6d146104a8578063570766b0146104c8578063574f2ba3146104e85780635a17c4f9146104fd5780635e1e63251461051057600080fd5b80632ad3fc54146103f85780633041949b146104185780633a129a30146104385780633cb1731f146104585780633feb1bd81461047857600080fd5b80630a9a2b72116102035780630a9a2b721461034a5780631e3dd18b1461036a5780632292d33114610398578063239caac7146103b85780632455840e146103d857600080fd5b8063017e7e58146102b2578063049986bc146102ef578063068075ff14610317578063094b74151461032a57600080fd5b366102ad57336001600160a01b037f000000000000000000000000000000000000000000000000000000000000000016146102ab5760405162461bcd60e51b8152602060048201526012602482015271446566744445583a204f4e4c595f5758464960701b60448201526064015b60405180910390fd5b005b600080fd5b3480156102be57600080fd5b506006546102d2906001600160a01b031681565b6040516001600160a01b0390911681526020015b60405180910390f35b6103026102fd36600461537a565b6108b2565b604080519283526020830191909152016102e6565b6102ab61032536600461537a565b610a13565b34801561033657600080fd5b506007546102d2906001600160a01b031681565b34801561035657600080fd5b506103026103653660046153cf565b610c41565b34801561037657600080fd5b5061038a61038536600461540b565b610d9c565b6040519081526020016102e6565b3480156103a457600080fd5b506103026103b3366004615424565b610dbd565b3480156103c457600080fd5b5061038a6103d3366004615483565b610ec0565b3480156103e457600080fd5b506103026103f3366004615424565b610f4a565b34801561040457600080fd5b506102ab610413366004615424565b610fe7565b34801561042457600080fd5b506102ab6104333660046154c8565b61115f565b34801561044457600080fd5b50610302610453366004615424565b6112a8565b34801561046457600080fd5b50610302610473366004615483565b611345565b34801561048457600080fd5b506104986104933660046154fb565b6113d3565b60405190151581526020016102e6565b3480156104b457600080fd5b506104986104c3366004615530565b61147b565b3480156104d457600080fd5b506102ab6104e3366004615574565b6115aa565b3480156104f457600080fd5b5060035461038a565b61030261050b36600461537a565b61174f565b34801561051c57600080fd5b5061030261052b3660046153cf565b6118bb565b34801561053c57600080fd5b5061055061054b36600461540b565b611a1a565b6040516102e691906155c4565b34801561056957600080fd5b5061055061057836600461540b565b611ba5565b34801561058957600080fd5b506102ab610598366004615424565b611d18565b6105b06105ab366004615483565b611e86565b604080519384526020840192909252908201526060016102e6565b3480156105d757600080fd5b506005546102d2906001600160a01b031681565b3480156105f757600080fd5b506102ab6106063660046155f7565b61226c565b34801561061757600080fd5b5061062b61062636600461540b565b6122dd565b604080516001600160701b03948516815293909216602084015263ffffffff16908201526060016102e6565b34801561066357600080fd5b5061038a610672366004615612565b612317565b34801561068357600080fd5b5061038a61069236600461540b565b60009081526020819052604090205490565b3480156106b057600080fd5b5061038a6103e881565b3480156106c657600080fd5b506103026106d536600461563e565b6123b0565b3480156106e657600080fd5b506104986106f53660046154fb565b612422565b34801561070657600080fd5b5061038a6107153660046156a8565b612482565b34801561072657600080fd5b50610302610735366004615424565b6124ac565b34801561074657600080fd5b5061038a60085481565b34801561075c57600080fd5b506102d27f000000000000000000000000000000000000000000000000000000000000000081565b34801561079057600080fd5b5061038a61079f3660046153cf565b60009283526002602090815260408085206001600160a01b03948516865282528085209290931684525290205490565b3480156107db57600080fd5b506105b06107ea3660046156cb565b61259d565b3480156107fb57600080fd5b506102ab61080a3660046155f7565b6128ac565b34801561081b57600080fd5b5061087461082a36600461540b565b6004602081905260009182526040909120600281015460038201549282015460058301546006909301546001600160701b0380841695600160701b90940416939063ffffffff1686565b604080516001600160701b039788168152969095166020870152938501929092526060840152608083015263ffffffff1660a082015260c0016102e6565b60008082428110156108d65760405162461bcd60e51b81526004016102a29061573f565b600854156108f65760405162461bcd60e51b81526004016102a290615769565b60016008819055507f00000000000000000000000000000000000000000000000000000000000000006001600160a01b0316876001600160a01b03161461094f5760405162461bcd60e51b81526004016102a290615796565b61095a3488886118bb565b90935091508783101561097f5760405162461bcd60e51b81526004016102a2906157c5565b7f00000000000000000000000000000000000000000000000000000000000000006001600160a01b031663d0e30db0346040518263ffffffff1660e01b81526004016000604051808303818588803b1580156109da57600080fd5b505af11580156109ee573d6000803e3d6000fd5b5050505050610a028388888886600061291d565b600860009055509550959350505050565b8042811015610a345760405162461bcd60e51b81526004016102a29061573f565b60085415610a545760405162461bcd60e51b81526004016102a290615769565b60016008819055507f00000000000000000000000000000000000000000000000000000000000000006001600160a01b0316856001600160a01b031614610aad5760405162461bcd60e51b81526004016102a290615796565b7f00000000000000000000000000000000000000000000000000000000000000006001600160a01b031663d0e30db0346040518263ffffffff1660e01b81526004016000604051808303818588803b158015610b0857600080fd5b505af1158015610b1c573d6000803e3d6000fd5b50506040516370a0823160e01b81526001600160a01b03878116600483015260009450881692506370a082319150602401602060405180830381865afa158015610b6a573d6000803e3d6000fd5b505050506040513d601f19601f82011682018060405250810190610b8e9190615808565b9050610b9d868686600061298b565b6040516370a0823160e01b81526001600160a01b038581166004830152889183918816906370a0823190602401602060405180830381865afa158015610be7573d6000803e3d6000fd5b505050506040513d601f19601f82011682018060405250810190610c0b9190615808565b610c159190615837565b1015610c335760405162461bcd60e51b81526004016102a2906157c5565b505060006008555050505050565b60008084600003610c645760405162461bcd60e51b81526004016102a2906157c5565b600080610c718686612aca565b5091509150600080610c8484848a612bee565b9150915081600014158015610c9857508015155b610ce45760405162461bcd60e51b815260206004820152601f60248201527f446566744465783a20494e53554646494349454e545f4c49515549444954590060448201526064016102a2565b600080846001600160a01b03168a6001600160a01b031614610d08578a6000610d0c565b60008b5b9150915060006040518060800160405280868152602001858152602001848152602001838152509050610d3e81612c72565b9750610d4c886103e8615837565b610d568d86615837565b610d60919061584a565b610d6a8d8761584a565b610d76906103e861584a565b610d809190615877565b610d8b90600161588b565b985050505050505050935093915050565b60038181548110610dac57600080fd5b600091825260209091200154905081565b6000808242811015610de15760405162461bcd60e51b81526004016102a29061573f565b60085415610e015760405162461bcd60e51b81526004016102a290615769565b60016008819055507f00000000000000000000000000000000000000000000000000000000000000006001600160a01b0316866001600160a01b031614610e5a5760405162461bcd60e51b81526004016102a290615796565b610e65898888610c41565b909350915087831115610e8a5760405162461bcd60e51b81526004016102a29061589e565b610e9f6001600160a01b038816333086612e37565b610eae8988888886600161291d565b60086000905550965096945050505050565b60008142811015610ee35760405162461bcd60e51b81526004016102a29061573f565b60085415610f035760405162461bcd60e51b81526004016102a290615769565b6001600855610f38887f0000000000000000000000000000000000000000000000000000000000000000898989896000612f75565b60006008559998505050505050505050565b6000808242811015610f6e5760405162461bcd60e51b81526004016102a29061573f565b60085415610f8e5760405162461bcd60e51b81526004016102a290615769565b6001600855610f9e898888610c41565b909350915087831115610fc35760405162461bcd60e51b81526004016102a29061589e565b610fd86001600160a01b038816333086612e37565b610eae8988888886600061291d565b80428110156110085760405162461bcd60e51b81526004016102a29061573f565b600854156110285760405162461bcd60e51b81526004016102a290615769565b60016008819055507f00000000000000000000000000000000000000000000000000000000000000006001600160a01b0316846001600160a01b0316146110815760405162461bcd60e51b81526004016102a290615796565b6110966001600160a01b03861633308a612e37565b6110a3858585600161298b565b6040516370a0823160e01b81523060048201526000907f00000000000000000000000000000000000000000000000000000000000000006001600160a01b0316906370a0823190602401602060405180830381865afa15801561110a573d6000803e3d6000fd5b505050506040513d601f19601f8201168201806040525081019061112e9190615808565b9050868110156111505760405162461bcd60e51b81526004016102a2906157c5565b50506000600855505050505050565b6008541561117f5760405162461bcd60e51b81526004016102a290615769565b600160085560008080611193858583613616565b6040516370a0823160e01b8152306004820152929550909350915061129c9084906001600160a01b038516906370a0823190602401602060405180830381865afa1580156111e5573d6000803e3d6000fd5b505050506040513d601f19601f820116820180604052508101906112099190615808565b6040516370a0823160e01b81523060048201526001600160a01b038516906370a0823190602401602060405180830381865afa15801561124d573d6000803e3d6000fd5b505050506040513d601f19601f820116820180604052508101906112719190615808565b6000878152600460205260409020600201546001600160701b0380821691600160701b900416613715565b50506000600855505050565b60008082428110156112cc5760405162461bcd60e51b81526004016102a29061573f565b600854156112ec5760405162461bcd60e51b81526004016102a290615769565b60016008556112fc8988886118bb565b9093509150878310156113215760405162461bcd60e51b81526004016102a2906157c5565b6113366001600160a01b03881633308c612e37565b610eae8388888886600061291d565b60008082428110156113695760405162461bcd60e51b81526004016102a29061573f565b600854156113895760405162461bcd60e51b81526004016102a290615769565b60016008556113be897f00000000000000000000000000000000000000000000000000000000000000008a8a8a8a6000612f75565b6000600855909a909950975050505050505050565b60008381526001602090815260408083203384529091528120805483919083906113fe908490615837565b909155505060008481526001602090815260408083206001600160a01b03871684529091528120805484929061143590849061588b565b909155505060408051858152336020820181905284926001600160a01b03871692600080516020615c9c83398151915291015b60405180910390a45060015b9392505050565b6000336001600160a01b038516146114f95760008581526002602090815260408083206001600160a01b0388168452825280832033845290915290205460001981146114f7576114cb8382615837565b60008781526002602090815260408083206001600160a01b038a16845282528083203384529091529020555b505b60008581526001602090815260408083206001600160a01b03881684529091528120805484929061152b908490615837565b909155505060008581526001602090815260408083206001600160a01b03871684529091528120805484929061156290849061588b565b90915550506040805186815233602082015283916001600160a01b038087169290881691600080516020615c9c833981519152910160405180910390a4506001949350505050565b600854156115ca5760405162461bcd60e51b81526004016102a290615769565b6001600855600080806115de858583613616565b6000838152600460208190526040918290206002015491516370a0823160e01b8152309181019190915293965091945092506116909188916001600160701b0316906001600160a01b038616906370a0823190602401602060405180830381865afa158015611651573d6000803e3d6000fd5b505050506040513d601f19601f820116820180604052508101906116759190615808565b61167f9190615837565b6001600160a01b0385169190613904565b6000838152600460208190526040918290206002015491516370a0823160e01b81523091810191909152611742918891600160701b9091046001600160701b0316906001600160a01b038516906370a0823190602401602060405180830381865afa158015611703573d6000803e3d6000fd5b505050506040513d601f19601f820116820180604052508101906117279190615808565b6117319190615837565b6001600160a01b0384169190613904565b5050600060085550505050565b60008082428110156117735760405162461bcd60e51b81526004016102a29061573f565b600854156117935760405162461bcd60e51b81526004016102a290615769565b60016008819055507f00000000000000000000000000000000000000000000000000000000000000006001600160a01b0316876001600160a01b0316146117ec5760405162461bcd60e51b81526004016102a290615796565b6117f7888888610c41565b90935091503483111561181c5760405162461bcd60e51b81526004016102a29061589e565b7f00000000000000000000000000000000000000000000000000000000000000006001600160a01b031663d0e30db0846040518263ffffffff1660e01b81526004016000604051808303818588803b15801561187757600080fd5b505af115801561188b573d6000803e3d6000fd5b505050505061189f8888888886600061291d565b82341115610a0257610a026118b48434615837565b3390613a35565b600080846000036118de5760405162461bcd60e51b81526004016102a2906158d5565b6000806118eb8686612aca565b50915091506000806118fe84848a612bee565b915091508160001415801561191257508015155b61192e5760405162461bcd60e51b81526004016102a290615917565b600080846001600160a01b03168a6001600160a01b03161461196f576119548b8561588b565b61195e848d61584a565b6119689190615877565b600061198f565b600061197b8c8661588b565b611985858e61584a565b61198f9190615877565b91509150600060405180608001604052808681526020018581526020018481526020018381525090506119c181612c72565b97506119cf886103e8615837565b6119d9908d61584a565b6119e5866103e861584a565b6119ef919061588b565b846119fc8a6103e8615837565b611a06908f61584a565b611a10919061584a565b610d8b9190615877565b600081815260046020526040812060060154606091839163ffffffff169003611a855760405162461bcd60e51b815260206004820152601a60248201527f446566744445583a20504149525f444f45534e545f455849535400000000000060448201526064016102a2565b60008381526004602081905260408083205481516395d89b4160e01b815291516001600160a01b03909116936395d89b4193838101939192918290030181865afa158015611ad7573d6000803e3d6000fd5b505050506040513d6000823e601f3d908101601f19168201604052611aff9190810190615964565b60008481526004602081905260408083206001015481516395d89b4160e01b815291516001600160a01b03909116936395d89b4193838101939192918290030181865afa158015611b54573d6000803e3d6000fd5b505050506040513d6000823e601f3d908101601f19168201604052611b7c9190810190615964565b604051602001611b8d929190615a06565b60405160208183030381529060405291505b50919050565b600081815260046020526040812060060154606091839163ffffffff169003611c105760405162461bcd60e51b815260206004820152601a60248201527f446566744445583a20504149525f444f45534e545f455849535400000000000060448201526064016102a2565b60008381526004602081905260408083205481516395d89b4160e01b815291516001600160a01b03909116936395d89b4193838101939192918290030181865afa158015611c62573d6000803e3d6000fd5b505050506040513d6000823e601f3d908101601f19168201604052611c8a9190810190615964565b60008481526004602081905260408083206001015481516395d89b4160e01b815291516001600160a01b03909116936395d89b4193838101939192918290030181865afa158015611cdf573d6000803e3d6000fd5b505050506040513d6000823e601f3d908101601f19168201604052611d079190810190615964565b604051602001611b8d929190615a59565b8042811015611d395760405162461bcd60e51b81526004016102a29061573f565b60085415611d595760405162461bcd60e51b81526004016102a290615769565b6001600855611d736001600160a01b03861633308a612e37565b6040516370a0823160e01b81526001600160a01b038481166004830152600091908616906370a0823190602401602060405180830381865afa158015611dbd573d6000803e3d6000fd5b505050506040513d601f19601f82011682018060405250810190611de19190615808565b9050611df0868686600061298b565b6040516370a0823160e01b81526001600160a01b038581166004830152889183918816906370a0823190602401602060405180830381865afa158015611e3a573d6000803e3d6000fd5b505050506040513d601f19601f82011682018060405250810190611e5e9190615808565b611e689190615837565b10156111505760405162461bcd60e51b81526004016102a2906157c5565b60008060008342811015611eac5760405162461bcd60e51b81526004016102a29061573f565b60085415611ecc5760405162461bcd60e51b81526004016102a290615769565b60016008556000611f018b7f00000000000000000000000000000000000000000000000000000000000000008c348d8d613b14565b91965094509050611f1d6001600160a01b038c16333088612e37565b7f00000000000000000000000000000000000000000000000000000000000000006001600160a01b031663d0e30db0856040518263ffffffff1660e01b81526004016000604051808303818588803b158015611f7857600080fd5b505af1158015611f8c573d6000803e3d6000fd5b5050505050600080611f9d836122dd565b506000858152600460205260408120929450909250908101546040516370a0823160e01b81523060048201526001600160a01b03909116906370a0823190602401602060405180830381865afa158015611ffb573d6000803e3d6000fd5b505050506040513d601f19601f8201168201806040525081019061201f9190615808565b600085815260046020526040812091925090600101546040516370a0823160e01b81523060048201526001600160a01b03909116906370a0823190602401602060405180830381865afa15801561207a573d6000803e3d6000fd5b505050506040513d601f19601f8201168201806040525081019061209e9190615808565b905060006120b56001600160701b03861684615837565b905060006120cc6001600160701b03861684615837565b905060006120db888888613c53565b6000898152602081905260408120549192508f9082900361212a576103e861210b612106868861584a565b613d4e565b6121159190615837565b9b506121258a60006103e8613db8565b612172565b61216f6001600160701b038916612141848761584a565b61214b9190615877565b6001600160701b038b1661215f858961584a565b6121699190615877565b90613e4e565b9b505b8b6000036121925760405162461bcd60e51b81526004016102a290615aa5565b61219d8a828e613db8565b6121aa8a88888c8c613715565b82156121ff5760008a8152600460205260409020600201546121de906001600160701b03600160701b820481169116615aeb565b60008b81526004602052604090206001600160701b03919091166005909101555b604080518681526020810186905233917f4c209b5fc8ad50758f13e2e1088ba56a560dff690a1c6fef26394f4c03821c4f910160405180910390a28c34111561224f5761224f6118b48e34615837565b505050505050505050506008600090555096509650969350505050565b6007546001600160a01b031633146122bb5760405162461bcd60e51b81526020600482015260126024820152712232b33a2222ac1d102327a92124a22222a760711b60448201526064016102a2565b600780546001600160a01b0319166001600160a01b0392909216919091179055565b600090815260046020526040902060028101546006909101546001600160701b0380831693600160701b909304169163ffffffff90911690565b6000836000036123695760405162461bcd60e51b815260206004820152601c60248201527f446566744445583a20494e53554646494349454e545f414d4f554e540000000060448201526064016102a2565b821580159061237757508115155b6123935760405162461bcd60e51b81526004016102a290615917565b8261239e838661584a565b6123a89190615877565b949350505050565b60008082428110156123d45760405162461bcd60e51b81526004016102a29061573f565b600854156123f45760405162461bcd60e51b81526004016102a290615769565b600160088190555061240c8a8a8a8a8a8a6001612f75565b6000600855909b909a5098505050505050505050565b6000838152600260209081526040808320338085529083528184206001600160a01b038716808652908452828520869055915187815285937f71dc57be39b79a8b1f8e288bc0ad3f1bc02a354d540618df5cb7ed1c95b9c1409101611468565b60008281526001602090815260408083206001600160a01b03851684529091529020545b92915050565b60008082428110156124d05760405162461bcd60e51b81526004016102a29061573f565b600854156124f05760405162461bcd60e51b81526004016102a290615769565b60016008819055507f00000000000000000000000000000000000000000000000000000000000000006001600160a01b0316866001600160a01b0316146125495760405162461bcd60e51b81526004016102a290615796565b6125548988886118bb565b9093509150878310156125795760405162461bcd60e51b81526004016102a2906157c5565b61258e6001600160a01b03881633308c612e37565b610eae8388888886600161291d565b600080600083428110156125c35760405162461bcd60e51b81526004016102a29061573f565b600854156125e35760405162461bcd60e51b81526004016102a290615769565b600160085560006125f88d8d8d8d8d8d613b14565b9196509450905061260b8d333088612e37565b6126178c333087612e37565b600080612623836122dd565b506000858152600460205260408120929450909250908101546040516370a0823160e01b81523060048201526001600160a01b03909116906370a0823190602401602060405180830381865afa158015612681573d6000803e3d6000fd5b505050506040513d601f19601f820116820180604052508101906126a59190615808565b600085815260046020526040812091925090600101546040516370a0823160e01b81523060048201526001600160a01b03909116906370a0823190602401602060405180830381865afa158015612700573d6000803e3d6000fd5b505050506040513d601f19601f820116820180604052508101906127249190615808565b9050600061273b6001600160701b03861684615837565b905060006127526001600160701b03861684615837565b90506000612761888888613c53565b6000898152602081905260408120549192508f908290036127ab576103e861278c612106868861584a565b6127969190615837565b9b506127a68a60006103e8613db8565b6127c5565b6127c26001600160701b038916612141848761584a565b9b505b8b6000036127e55760405162461bcd60e51b81526004016102a290615aa5565b6127f08a828e613db8565b6127fd8a88888c8c613715565b82156128525760008a815260046020526040902060020154612831906001600160701b03600160701b820481169116615aeb565b60008b81526004602052604090206001600160701b03919091166005909101555b604080518681526020810186905233917f4c209b5fc8ad50758f13e2e1088ba56a560dff690a1c6fef26394f4c03821c4f910160405180910390a25050505050505050505060086000905550985098509895505050505050565b6007546001600160a01b031633146128fb5760405162461bcd60e51b81526020600482015260126024820152712232b33a2222ac1d102327a92124a22222a760711b60448201526064016102a2565b600680546001600160a01b0319166001600160a01b0392909216919091179055565b60008061292c87876000613616565b509150915061298182826001600160a01b0316896001600160a01b0316146129545789612957565b60005b836001600160a01b0316896001600160a01b031603612977576000612979565b8a5b888888613e64565b5050505050505050565b60008061299a86866000613616565b50915091506000806129ab846122dd565b50915091506000836001600160a01b0316896001600160a01b0316146129d157816129d3565b825b6040516370a0823160e01b81523060048201526001600160701b0391909116915060009082906001600160a01b038c16906370a0823190602401602060405180830381865afa158015612a2a573d6000803e3d6000fd5b505050506040513d601f19601f82011682018060405250810190612a4e9190615808565b612a589190615837565b9050600080612a68838d8d6118bb565b91509150612abc88886001600160a01b03168e6001600160a01b031614612a8f5783612a92565b60005b896001600160a01b03168e6001600160a01b031603612ab2576000612ab4565b845b8d858e613e64565b505050505050505050505050565b6000806000836001600160a01b0316856001600160a01b031603612b305760405162461bcd60e51b815260206004820152601c60248201527f446566744445583a204944454e544943414c5f4144445245535345530000000060448201526064016102a2565b836001600160a01b0316856001600160a01b031610612b50578385612b53565b84845b90925090506001600160a01b038216612ba65760405162461bcd60e51b8152602060048201526015602482015274446566744445583a205a45524f5f4144445245535360581b60448201526064016102a2565b6040516bffffffffffffffffffffffff19606084811b8216602084015283901b1660348201526048016040516020818303038152906040528051906020012092509250925092565b600080836001600160a01b0316836001600160a01b031614612c34576000858152600460205260409020600201546001600160701b03600160701b820481169116612c5b565b6000858152600460205260409020600201546001600160701b0380821691600160701b9004165b6001600160701b0391821697911695509350505050565b8051602082015160009190811580612c88575080155b15612c97575060009392505050565b600081612ca784620f424061584a565b612cb19190615877565b905060008560400151600003612ced57828660600151612cd1919061588b565b612cde85620f424061584a565b612ce89190615877565b612d15565b82848760400151612cfe919061588b565b612d0b90620f424061584a565b612d159190615877565b905060006103e883612d27848361584a565b612d319190615877565b612d3b9190615b16565b905060f9198112801590612d51575061014e8113155b15612d63575060039695505050505050565b6101f3198112801590612d77575060f91981125b15612d9957612d8e6201099f196136af1983614431565b979650505050505050565b61014e81138015612dac57506103e88113155b15612dc157612d8e61631a6114f91983614431565b6101f31981128015612dd657506103e7198112155b15612df757612d8e676f05b59d3b20000067196ea321c0aef4b71983614469565b6103e881138015612e0a57506113888113155b15612e2a57612d8e67dcbb62492885880867032dd4643815de9c83614469565b5060379695505050505050565b604080516001600160a01b0385811660248301528481166044830152606480830185905283518084039091018152608490920183526020820180516001600160e01b03166323b872dd60e01b1790529151600092839290881691612e9b9190615b3d565b6000604051808303816000865af19150503d8060008114612ed8576040519150601f19603f3d011682016040523d82523d6000602084013e612edd565b606091505b5091509150818015612f07575080511580612f07575080806020019051810190612f079190615b59565b612f6d5760405162461bcd60e51b815260206004820152603160248201527f5472616e7366657248656c7065723a3a7472616e7366657246726f6d3a207472604482015270185b9cd9995c919c9bdb4819985a5b1959607a1b60648201526084016102a2565b505050505050565b6000806000604051806101000160405280866001600160a01b031681526020018981526020018b6001600160a01b031681526020018a6001600160a01b0316815260200160008152602001600081526020018881526020018781525090506000806000612fec846040015185606001516000613616565b925092509250613002833330876020015161147b565b5060008061300f856122dd565b506040516370a0823160e01b815230600482015291935091506000906001600160a01b038616906370a0823190602401602060405180830381865afa15801561305c573d6000803e3d6000fd5b505050506040513d601f19601f820116820180604052508101906130809190615808565b6040516370a0823160e01b81523060048201529091506000906001600160a01b038616906370a0823190602401602060405180830381865afa1580156130ca573d6000803e3d6000fd5b505050506040513d601f19601f820116820180604052508101906130ee9190615808565b905060006130fc8830612482565b9050600061310b898787613c53565b60008a81526020819052604081205491925081613128878661584a565b6131329190615877565b9050600082613141878761584a565b61314b9190615877565b9050811580159061315b57508015155b6131b65760405162461bcd60e51b815260206004820152602660248201527f446566744445583a20494e53554646494349454e545f4c49515549444954595f60448201526510955493915160d21b60648201526084016102a2565b6131c18c30876144d7565b8f806131ff57507f00000000000000000000000000000000000000000000000000000000000000006001600160a01b03168b6001600160a01b031614155b15613220578c5161321b906001600160a01b038d169084613904565b6132b0565b604051632e1a7d4d60e01b8152600481018390527f00000000000000000000000000000000000000000000000000000000000000006001600160a01b031690632e1a7d4d90602401600060405180830381600087803b15801561328257600080fd5b505af1158015613296573d6000803e3d6000fd5b50508e516132b092506001600160a01b0316905083613a35565b8f806132ee57507f00000000000000000000000000000000000000000000000000000000000000006001600160a01b03168a6001600160a01b031614155b1561330f578c5161330a906001600160a01b038c169083613904565b61339f565b604051632e1a7d4d60e01b8152600481018290527f00000000000000000000000000000000000000000000000000000000000000006001600160a01b031690632e1a7d4d90602401600060405180830381600087803b15801561337157600080fd5b505af1158015613385573d6000803e3d6000fd5b50508e5161339f92506001600160a01b0316905082613a35565b6040516370a0823160e01b81523060048201526001600160a01b038c16906370a0823190602401602060405180830381865afa1580156133e3573d6000803e3d6000fd5b505050506040513d601f19601f820116820180604052508101906134079190615808565b6040516370a0823160e01b81523060048201529097506001600160a01b038b16906370a0823190602401602060405180830381865afa15801561344e573d6000803e3d6000fd5b505050506040513d601f19601f820116820180604052508101906134729190615808565b95506134818c88888c8c613715565b83156134c85760008c8152600460205260409020600201546134b5906001600160701b03600160701b82048116911661584a565b60008d8152600460205260409020600501555b8c5160408051848152602081018490526001600160a01b039092169133917fdccd412f0b1252819cb1fd330b93224ca42612892bb3f4f789976e6d81936496910160405180910390a38a6001600160a01b03168d604001516001600160a01b031614613535578082613538565b81815b60a08f015260808e0181905260c08e015111156135975760405162461bcd60e51b815260206004820152601e60248201527f446566744445583a20494e53554646494349454e545f415f414d4f554e54000060448201526064016102a2565b8c60e001518d60a0015110156135ef5760405162461bcd60e51b815260206004820152601e60248201527f446566744445583a20494e53554646494349454e545f425f414d4f554e54000060448201526064016102a2565b8c608001518d60a001519e509e505050505050505050505050505097509795505050505050565b60008060006136258686612aca565b9194509250905083801561364e575060008381526004602052604090206006015463ffffffff16155b1561370c5760038054600181019091557fc2575a0e9e593c00f959f8c92f12db2869c3395a3b0502d05e2516446f71f85b018390556040805180820182526001600160a01b038085168252831660208281019190915260008681526004909152919091206136bd9160026152ff565b506003546040805185815260208101929092526001600160a01b0380841692908516917f8dad5b4af14974924b907913d5f481bdaa2d6a777229b434eac17b700a6cea4b910160405180910390a35b93509350939050565b6001600160701b03841180159061373357506001600160701b038311155b6137735760405162461bcd60e51b8152602060048201526011602482015270446566744445583a204f564552464c4f5760781b60448201526064016102a2565b600061378464010000000042615b7b565b60008781526004602052604090206006015490915063ffffffff9081168203908116158015906137bc57506001600160701b03841615155b80156137d057506001600160701b03831615155b1561386c578063ffffffff16613801856137f2866001600160701b0316614564565b6001600160e01b03169061457d565b600089815260046020526040902060030180546001600160e01b03929092169290920201905563ffffffff8116613844846137f26001600160701b038816614564565b60008981526004602081905260409091200180546001600160e01b0392909216929092020190555b506000868152600460209081526040918290206002810180546001600160701b038a81166001600160e01b03199092168217600160701b918b16918202179092556006909201805463ffffffff191663ffffffff87161790558351918252918101919091527f1c411e9a96e071241c2f21f7726b17ae89e3cab4c78be50e062b03a9fffbbad1910160405180910390a1505050505050565b604080516001600160a01b038481166024830152604480830185905283518084039091018152606490920183526020820180516001600160e01b031663a9059cbb60e01b17905291516000928392908716916139609190615b3d565b6000604051808303816000865af19150503d806000811461399d576040519150601f19603f3d011682016040523d82523d6000602084013e6139a2565b606091505b50915091508180156139cc5750805115806139cc5750808060200190518101906139cc9190615b59565b613a2e5760405162461bcd60e51b815260206004820152602d60248201527f5472616e7366657248656c7065723a3a736166655472616e736665723a20747260448201526c185b9cd9995c8819985a5b1959609a1b60648201526084016102a2565b5050505050565b604080516000808252602082019092526001600160a01b038416908390604051613a5f9190615b3d565b60006040518083038185875af1925050503d8060008114613a9c576040519150601f19603f3d011682016040523d82523d6000602084013e613aa1565b606091505b5050905080613b0f5760405162461bcd60e51b815260206004820152603460248201527f5472616e7366657248656c7065723a3a736166655472616e736665725846493a60448201527308161192481d1c985b9cd9995c8819985a5b195960621b60648201526084016102a2565b505050565b600080600080613b268a8a6001613616565b509092509050600080613b3a84848e612bee565b91509150816000148015613b4c575080155b15613b5c57899550889450613c44565b6000613b698b8484612317565b9050898111613bcd5787811015613bc25760405162461bcd60e51b815260206004820152601e60248201527f446566744445583a20494e53554646494349454e545f425f414d4f554e54000060448201526064016102a2565b8a9650945084613c42565b6000613bda8b8486612317565b90508b811115613bec57613bec615b8f565b89811015613c3c5760405162461bcd60e51b815260206004820152601e60248201527f446566744445583a20494e53554646494349454e545f415f414d4f554e54000060448201526064016102a2565b96508995505b505b50505096509650969350505050565b6006546000848152600460205260409020600501546001600160a01b039091161580159190613d2d578015613d28576000613c9d6121066001600160701b0380871690881661584a565b90506000613caa83613d4e565b905080821115613d25576000613cc08284615837565b600089815260208190526040902054613cd9919061584a565b9050600082613ce985600561584a565b613cf3919061588b565b90506000613d018284615877565b90508015613d2157600654613d21908b906001600160a01b031683613db8565b5050505b50505b613d46565b8015613d46576000858152600460205260408120600501555b509392505050565b60006003821115613da95750806000613d68600283615877565b613d7390600161588b565b90505b81811015611b9f57905080600281613d8e8186615877565b613d98919061588b565b613da29190615877565b9050613d76565b8115613db3575060015b919050565b60008381526020819052604081208054839290613dd690849061588b565b909155505060008381526001602090815260408083206001600160a01b038616845290915281208054839290613e0d90849061588b565b90915550506040805184815233602082015282916001600160a01b03851691600091600080516020615c9c83398151915291015b60405180910390a4505050565b6000818310613e5d5781611474565b5090919050565b84151580613e7157508315155b613e8d5760405162461bcd60e51b81526004016102a2906157c5565b600080613e99886122dd565b5091509150816001600160701b031687108015613ebe5750806001600160701b031686105b613eda5760405162461bcd60e51b81526004016102a290615917565b600088815260046020526040902080546001909101546001600160a01b03918216919081169087168214801590613f235750806001600160a01b0316876001600160a01b031614155b8015613f3857506001600160a01b0387163014155b613f7a5760405162461bcd60e51b8152602060048201526013602482015272446566744445583a20494e56414c49445f544f60681b60448201526064016102a2565b881561406a577f00000000000000000000000000000000000000000000000000000000000000006001600160a01b0316826001600160a01b0316148015613fbe5750845b1561405657604051632e1a7d4d60e01b8152600481018a90527f00000000000000000000000000000000000000000000000000000000000000006001600160a01b031690632e1a7d4d90602401600060405180830381600087803b15801561402557600080fd5b505af1158015614039573d6000803e3d6000fd5b50614051925050506001600160a01b0388168a613a35565b61406a565b61406a6001600160a01b038316888b613904565b871561415a577f00000000000000000000000000000000000000000000000000000000000000006001600160a01b0316816001600160a01b03161480156140ae5750845b1561414657604051632e1a7d4d60e01b8152600481018990527f00000000000000000000000000000000000000000000000000000000000000006001600160a01b031690632e1a7d4d90602401600060405180830381600087803b15801561411557600080fd5b505af1158015614129573d6000803e3d6000fd5b50614141925050506001600160a01b03881689613a35565b61415a565b61415a6001600160a01b038216888a613904565b6040516370a0823160e01b81523060048201526000906001600160a01b038416906370a0823190602401602060405180830381865afa1580156141a1573d6000803e3d6000fd5b505050506040513d601f19601f820116820180604052508101906141c59190615808565b6040516370a0823160e01b81523060048201529091506000906001600160a01b038416906370a0823190602401602060405180830381865afa15801561420f573d6000803e3d6000fd5b505050506040513d601f19601f820116820180604052508101906142339190615808565b9050600060405180608001604052808d896001600160701b03166142579190615837565b8511614264576000614281565b6142778e6001600160701b038b16615837565b6142819086615837565b81526020016142998d6001600160701b038a16615837565b84116142a65760006142c3565b6142b98d6001600160701b038a16615837565b6142c39085615837565b8152602081018e90526040018c905280519091501515806142e75750602081015115155b6143035760405162461bcd60e51b81526004016102a2906158d5565b6143196001600160701b0380881690891661584a565b61432690620f424061584a565b898260200151614336919061584a565b614342846103e861584a565b61434c9190615837565b8251614359908c9061584a565b614365866103e861584a565b61436f9190615837565b614379919061584a565b10156143b45760405162461bcd60e51b815260206004820152600a602482015269446566744445583a204b60b01b60448201526064016102a2565b6143c18d84848a8a613715565b8051602080830151604080850151606080870151835196875294860193909352908401528201526001600160a01b038b169033907fd78ad95fa46c994b6551d0da85fc275fe613ce37657fb8d5e3d130840159d8229060800160405180910390a350505050505050505050505050565b6000620f4240614443846103e8615ba5565b60070b838660070b6144559190615bc5565b61445f9190615bf5565b6123a89190615c15565b60006144836ec097ce7bc90715b34b9f1000000000614592565b6144c16144bc6144b96144aa6144a261449c89600d0b90565b886145e8565b6103e86146b5565b6725b946ebc0b3617390614762565b90565b614592565b6144cd86600d0b614592565b61239e919061584a565b60008381526001602090815260408083206001600160a01b038616845290915281208054839290614509908490615837565b90915550506000838152602081905260408120805483929061452c908490615837565b90915550506040805184815233602082015282916000916001600160a01b03861691600080516020615c9c8339815191529101613e41565b60006124a6600160701b6001600160701b038416615c43565b60006114746001600160701b03831684615c75565b6000808212156145e45760405162461bcd60e51b815260206004820181905260248201527f53616665436173743a2076616c7565206d75737420626520706f73697469766560448201526064016102a2565b5090565b60008282600160ff1b8214806146015750600160ff1b81145b1561461f5760405163a6070c2560e01b815260040160405180910390fd5b600080600084126146305783614635565b836000035b915060008312614645578261464a565b826000035b905060006146588383614804565b90506001600160ff1b0381111561468c5760405163120b5b4360e01b815260048101899052602481018890526044016102a2565b600019858518136146a8816146a457826000036144b9565b8290565b9998505050505050505050565b60008282600160ff1b8214806146ce5750600160ff1b81145b156146ec576040516309fe2b4560e41b815260040160405180910390fd5b600080600084126146fd5783614702565b836000035b9150600083126147125782614717565b826000035b9050600061472e83670de0b6b3a7640000846148ba565b90506001600160ff1b0381111561468c5760405163d49c26b360e01b815260048101899052602481018890526044016102a2565b6000828281830361478d57801561477a576000614784565b670de0b6b3a76400005b925050506124a6565b670de0b6b3a764000082036147ae57670de0b6b3a7640000925050506124a6565b806000036147c857670de0b6b3a7640000925050506124a6565b670de0b6b3a764000081036147e15784925050506124a6565b6147fb6147f66147f08761498e565b866145e8565b614afc565b95945050505050565b60008080600019848609848602925082811083820303915050806000036148385750670de0b6b3a7640000900490506124a6565b670de0b6b3a7640000811061486a57604051635173648d60e01b815260048101869052602481018590526044016102a2565b6000670de0b6b3a764000085870962040000818503049310909103600160ee1b02919091177faccb18165bd6fe31ae1cf318dc5b51eee0e1ba569b88cd74c1773b91fac106690291505092915050565b60008080600019858709858702925082811083820303915050806000036148f4578382816148ea576148ea615861565b0492505050611474565b83811061492557604051630c740aef60e31b81526004810187905260248101869052604481018590526064016102a2565b60008486880960026001871981018816978890046003810283188082028403028082028403028082028403028082028403028082028403029081029092039091026000889003889004909101858311909403939093029303949094049190911702949350505050565b6000818181136149b45760405163059b101b60e01b8152600481018490526024016102a2565b6000670de0b6b3a764000082126149cd575060016149f3565b50600019816ec097ce7bc90715b34b9f1000000000816149ef576149ef615861565b0591505b6000614a7f670de0b6b3a7640000840560016fffffffffffffffffffffffffffffffff821160071b91821c67ffffffffffffffff811160061b90811c63ffffffff811160051b90811c61ffff811160041b90811c60ff8111600390811b91821c600f811160021b90811c918211871b91821c969096119490961792909217171791909117919091171790565b9050670de0b6b3a7640000810283821d670de0b6b3a763ffff198101614aa757818402612d8e565b671bc16d674ec800006706f05b59d3b200005b6000811315614aed57670de0b6b3a7640000838002059250818312614ae5579283019260019290921d915b60011d614aba565b50505091909102949350505050565b60008181811215614b5d5768033dd1780914b9711419811215614b225750600092915050565b614b56614b356144b96147f68460000390565b6ec097ce7bc90715b34b9f100000000081614b5257614b52615861565b0590565b9150611b9f565b680a688906bd8affffff811315614b8957604051626c1a0560e31b8152600481018490526024016102a2565b670de0b6b3a7640000604082901b056123a86144b982600160bf1b67ff00000000000000821615614cac57678000000000000000821615614bd35768016a09e667f3bcc9090260401c5b674000000000000000821615614bf2576801306fe0a31b7152df0260401c5b672000000000000000821615614c11576801172b83c7d517adce0260401c5b671000000000000000821615614c305768010b5586cf9890f62a0260401c5b670800000000000000821615614c4f576801059b0d31585743ae0260401c5b670400000000000000821615614c6e57680102c9a3e778060ee70260401c5b670200000000000000821615614c8d5768010163da9fb33356d80260401c5b670100000000000000821615614cac57680100b1afa5abcbed610260401c5b66ff000000000000821615614dab576680000000000000821615614cd95768010058c86da1c09ea20260401c5b6640000000000000821615614cf7576801002c605e2e8cec500260401c5b6620000000000000821615614d1557680100162f3904051fa10260401c5b6610000000000000821615614d33576801000b175effdc76ba0260401c5b6608000000000000821615614d5157680100058ba01fb9f96d0260401c5b6604000000000000821615614d6f5768010002c5cc37da94920260401c5b6602000000000000821615614d8d576801000162e525ee05470260401c5b6601000000000000821615614dab5768010000b17255775c040260401c5b65ff0000000000821615614ea15765800000000000821615614dd6576801000058b91b5bc9ae0260401c5b65400000000000821615614df357680100002c5c89d5ec6d0260401c5b65200000000000821615614e105768010000162e43f4f8310260401c5b65100000000000821615614e2d57680100000b1721bcfc9a0260401c5b65080000000000821615614e4a5768010000058b90cf1e6e0260401c5b65040000000000821615614e67576801000002c5c863b73f0260401c5b65020000000000821615614e8457680100000162e430e5a20260401c5b65010000000000821615614ea1576801000000b1721835510260401c5b64ff00000000821615614f8e57648000000000821615614eca57680100000058b90c0b490260401c5b644000000000821615614ee65768010000002c5c8601cc0260401c5b642000000000821615614f02576801000000162e42fff00260401c5b641000000000821615614f1e5768010000000b17217fbb0260401c5b640800000000821615614f3a576801000000058b90bfce0260401c5b640400000000821615614f5657680100000002c5c85fe30260401c5b640200000000821615614f725768010000000162e42ff10260401c5b640100000000821615614f8e57680100000000b17217f80260401c5b63ff000000821615615072576380000000821615614fb55768010000000058b90bfc0260401c5b6340000000821615614fd0576801000000002c5c85fe0260401c5b6320000000821615614feb57680100000000162e42ff0260401c5b6310000000821615615006576801000000000b17217f0260401c5b630800000082161561502157680100000000058b90c00260401c5b630400000082161561503c5768010000000002c5c8600260401c5b6302000000821615615057576801000000000162e4300260401c5b63010000008216156150725768010000000000b172180260401c5b62ff000082161561514d5762800000821615615097576801000000000058b90c0260401c5b624000008216156150b157680100000000002c5c860260401c5b622000008216156150cb5768010000000000162e430260401c5b621000008216156150e557680100000000000b17210260401c5b620800008216156150ff5768010000000000058b910260401c5b62040000821615615119576801000000000002c5c80260401c5b6202000082161561513357680100000000000162e40260401c5b6201000082161561514d576801000000000000b1720260401c5b61ff0082161561521f5761800082161561517057680100000000000058b90260401c5b6140008216156151895768010000000000002c5d0260401c5b6120008216156151a2576801000000000000162e0260401c5b6110008216156151bb5768010000000000000b170260401c5b6108008216156151d4576801000000000000058c0260401c5b6104008216156151ed57680100000000000002c60260401c5b61020082161561520657680100000000000001630260401c5b61010082161561521f57680100000000000000b10260401c5b60ff8216156152e857608082161561524057680100000000000000590260401c5b6040821615615258576801000000000000002c0260401c5b602082161561527057680100000000000000160260401c5b6010821615615288576801000000000000000b0260401c5b60088216156152a057680100000000000000060260401c5b60048216156152b857680100000000000000030260401c5b60028216156152d057680100000000000000010260401c5b60018216156152e857680100000000000000010260401c5b670de0b6b3a76400000260409190911c60bf031c90565b8260028101928215615347579160200282015b8281111561534757825182546001600160a01b0319166001600160a01b03909116178255602090920191600190910190615312565b506145e49291505b808211156145e4576000815560010161534f565b80356001600160a01b0381168114613db357600080fd5b600080600080600060a0868803121561539257600080fd5b853594506153a260208701615363565b93506153b060408701615363565b92506153be60608701615363565b949793965091946080013592915050565b6000806000606084860312156153e457600080fd5b833592506153f460208501615363565b915061540260408501615363565b90509250925092565b60006020828403121561541d57600080fd5b5035919050565b60008060008060008060c0878903121561543d57600080fd5b863595506020870135945061545460408801615363565b935061546260608801615363565b925061547060808801615363565b915060a087013590509295509295509295565b60008060008060008060c0878903121561549c57600080fd5b6154a587615363565b955060208701359450604087013593506060870135925061547060808801615363565b600080604083850312156154db57600080fd5b6154e483615363565b91506154f260208401615363565b90509250929050565b60008060006060848603121561551057600080fd5b8335925061552060208501615363565b9150604084013590509250925092565b6000806000806080858703121561554657600080fd5b8435935061555660208601615363565b925061556460408601615363565b9396929550929360600135925050565b60008060006060848603121561558957600080fd5b61559284615363565b92506153f460208501615363565b60005b838110156155bb5781810151838201526020016155a3565b50506000910152565b60208152600082518060208401526155e38160408501602087016155a0565b601f01601f19169190910160400192915050565b60006020828403121561560957600080fd5b61147482615363565b60008060006060848603121561562757600080fd5b505081359360208301359350604090920135919050565b600080600080600080600060e0888a03121561565957600080fd5b61566288615363565b965061567060208901615363565b955060408801359450606088013593506080880135925061569360a08901615363565b915060c0880135905092959891949750929550565b600080604083850312156156bb57600080fd5b823591506154f260208401615363565b600080600080600080600080610100898b0312156156e857600080fd5b6156f189615363565b97506156ff60208a01615363565b965060408901359550606089013594506080890135935060a0890135925061572960c08a01615363565b915060e089013590509295985092959890939650565b60208082526010908201526f1119599d1111560e881156141254915160821b604082015260600190565b6020808252601390820152721119599d1111560e8814914b51539514905395606a1b604082015260600190565b602080825260159082015274088cacce8888ab07440929cac82989288bea082a89605b1b604082015260600190565b60208082526023908201527f446566744445583a20494e53554646494349454e545f4f55545055545f414d4f60408201526215539560ea1b606082015260800190565b60006020828403121561581a57600080fd5b5051919050565b634e487b7160e01b600052601160045260246000fd5b818103818111156124a6576124a6615821565b80820281158282048414176124a6576124a6615821565b634e487b7160e01b600052601260045260246000fd5b60008261588657615886615861565b500490565b808201808211156124a6576124a6615821565b6020808252601f908201527f446566744445583a204558434553534956455f494e5055545f414d4f554e5400604082015260600190565b60208082526022908201527f446566744445583a20494e53554646494349454e545f494e5055545f414d4f55604082015261139560f21b606082015260800190565b6020808252601f908201527f446566744445583a20494e53554646494349454e545f4c495155494449545900604082015260600190565b634e487b7160e01b600052604160045260246000fd5b60006020828403121561597657600080fd5b815167ffffffffffffffff8082111561598e57600080fd5b818401915084601f8301126159a257600080fd5b8151818111156159b4576159b461594e565b604051601f8201601f19908116603f011681019083821181831017156159dc576159dc61594e565b816040528281528760208487010111156159f557600080fd5b612d8e8360208301602088016155a0565b60008351615a188184602088016155a0565b602f60f81b9083019081528351615a368160018401602088016155a0565b69102232b33a102830b4b960b11b60019290910191820152600b01949350505050565b60008351615a6b8184602088016155a0565b602f60f81b9083019081528351615a898160018401602088016155a0565b6202d44560ec1b60019290910191820152600401949350505050565b60208082526026908201527f446566744445583a20494e53554646494349454e545f4c49515549444954595f60408201526513525395115160d21b606082015260800190565b6001600160701b03818116838216028082169190828114615b0e57615b0e615821565b505092915050565b8181036000831280158383131683831282161715615b3657615b36615821565b5092915050565b60008251615b4f8184602087016155a0565b9190910192915050565b600060208284031215615b6b57600080fd5b8151801515811461147457600080fd5b600082615b8a57615b8a615861565b500690565b634e487b7160e01b600052600160045260246000fd5b60008260070b8260070b028060070b9150808214615b3657615b36615821565b80820260008212600160ff1b84141615615be157615be1615821565b81810583148215176124a6576124a6615821565b8082018281126000831280158216821582161715615b0e57615b0e615821565b600082615c2457615c24615861565b600160ff1b821460001984141615615c3e57615c3e615821565b500590565b6001600160e01b03828116828216818102831692918115828504821417615c6c57615c6c615821565b50505092915050565b60006001600160e01b0383811680615c8f57615c8f615861565b9216919091049291505056fefa7562dacc780def061f9a70711e93662b294202f46d8a292bcd0f0080fe3c7fa2646970667358221220f97c072f8063cd8f02f5905bc0c8bc9245314066b2560ef12c491e4e6640d34364736f6c63430008140033","linkReferences":{}},"methodIdentifiers":{"MINIMUM_LIQUIDITY()":"ba9a7a56","WXFI()":"db9528d8","addLiquidity(address,address,uint256,uint256,uint256,uint256,address,uint256)":"e8e33700","addLiquidityXFI(address,uint256,uint256,uint256,address,uint256)":"74d7156a","allPairs(uint256)":"1e3dd18b","allPairsLength()":"574f2ba3","allowance(bytes32,address,address)":"e88a3178","approve(bytes32,address,uint256)":"bf1ed1eb","balanceOf(bytes32,address)":"c2038236","feeTo()":"017e7e58","feeToSetter()":"094b7415","getAmountIn(uint256,address,address)":"0a9a2b72","getAmountOut(uint256,address,address)":"5e1e6325","getReserves(bytes32)":"a4a9e988","locked()":"cf309012","name(bytes32)":"691f3431","owner()":"8da5cb5b","pairData(bytes32)":"f851e15a","quote(uint256,uint256,uint256)":"ad615dec","removeLiquidity(address,address,uint256,uint256,uint256,address,uint256)":"baa2abde","removeLiquidityXFI(address,uint256,uint256,uint256,address,uint256)":"3cb1731f","removeLiquidityXFISupportingFOT(address,uint256,uint256,uint256,address,uint256)":"239caac7","setFeeTo(address)":"f46901ed","setFeeToSetter(address)":"a2e74af6","skim(address,address,address)":"570766b0","swapExactTokenForToken(uint256,uint256,address,address,address,uint256)":"3a129a30","swapExactTokenForTokenSupportingFOT(uint256,uint256,address,address,address,uint256)":"6ed3c0ed","swapExactTokenForXFI(uint256,uint256,address,address,address,uint256)":"ce75e158","swapExactTokenForXFISupportingFOT(uint256,uint256,address,address,address,uint256)":"2ad3fc54","swapExactXFIForToken(uint256,address,address,address,uint256)":"049986bc","swapExactXFIForTokenSupportingFOT(uint256,address,address,address,uint256)":"068075ff","swapTokenForExactToken(uint256,uint256,address,address,address,uint256)":"2455840e","swapTokenForExactXFI(uint256,uint256,address,address,address,uint256)":"2292d331","swapXFIForExactToken(uint256,address,address,address,uint256)":"5a17c4f9","symbol(bytes32)":"6baa0330","sync(address,address)":"3041949b","totalSupply(bytes32)":"b524abcf","transfer(bytes32,address,uint256)":"3feb1bd8","transferFrom(bytes32,address,address,uint256)":"500d2f6d"},"id":0}