{"abi":[{"type":"function","name":"A_LEFT","inputs":[],"outputs":[{"name":"","type":"int64","internalType":"int64"}],"stateMutability":"view"},{"type":"function","name":"A_LEFT_EXP","inputs":[],"outputs":[{"name":"","type":"int112","internalType":"int112"}],"stateMutability":"view"},{"type":"function","name":"A_RIGHT","inputs":[],"outputs":[{"name":"","type":"int64","internalType":"int64"}],"stateMutability":"view"},{"type":"function","name":"A_RIGHT_EXP","inputs":[],"outputs":[{"name":"","type":"int112","internalType":"int112"}],"stateMutability":"view"},{"type":"function","name":"B_LEFT","inputs":[],"outputs":[{"name":"","type":"int64","internalType":"int64"}],"stateMutability":"view"},{"type":"function","name":"B_LEFT_EXP","inputs":[],"outputs":[{"name":"","type":"int112","internalType":"int112"}],"stateMutability":"view"},{"type":"function","name":"B_RIGHT","inputs":[],"outputs":[{"name":"","type":"int64","internalType":"int64"}],"stateMutability":"view"},{"type":"function","name":"B_RIGHT_EXP","inputs":[],"outputs":[{"name":"","type":"int112","internalType":"int112"}],"stateMutability":"view"},{"type":"function","name":"LINEAR_REGRESSION_BASIS_POINT","inputs":[],"outputs":[{"name":"","type":"int64","internalType":"int64"}],"stateMutability":"view"},{"type":"function","name":"LOWER_STOP_LIMIT","inputs":[],"outputs":[{"name":"","type":"int32","internalType":"int32"}],"stateMutability":"view"},{"type":"function","name":"LOWER_THRESHOLD_LIMIT","inputs":[],"outputs":[{"name":"","type":"int32","internalType":"int32"}],"stateMutability":"view"},{"type":"function","name":"UPPER_STOP_LIMIT","inputs":[],"outputs":[{"name":"","type":"int32","internalType":"int32"}],"stateMutability":"view"},{"type":"function","name":"UPPER_THRESHOLD_LIMIT","inputs":[],"outputs":[{"name":"","type":"int32","internalType":"int32"}],"stateMutability":"view"}],"bytecode":{"object":"0x6101e661003a600b82828239805160001a60731461002d57634e487b7160e01b600052600060045260246000fd5b30600052607381538281f3fe73000000000000000000000000000000000000000030146080604052600436106100d95760003560e01c806374070c2511610096578063a2f8278711610070578063a2f8278714610184578063bd93aed41461018e578063c4be831414610198578063d6cafa62146101a157600080fd5b806374070c25146101675780637506c980146101705780639955985e1461017a57600080fd5b806310cddaf2146100de5780631a2aed8d146100ff57806322607b5d1461012257806325637f4a14610131578063290843761461013a5780635ae5665214610149575b600080fd5b6100e760f91981565b60405160039190910b81526020015b60405180910390f35b61010f67196ea321c0aef4b71981565b604051600d9190910b81526020016100f6565b61010f67032dd4643815de9c81565b6100e761014e81565b61010f676f05b59d3b20000081565b6101546201099f1981565b60405160079190910b81526020016100f6565b61015461631a81565b6101546114f91981565b610154620f424081565b6101546136af1981565b6100e76101f31981565b6100e76103e881565b61010f67dcbb6249288588088156fea264697066735822122005039e0f9ad3465e649a244f7e0d5bee8994c7a7df4685f2cc6c8f364ddb655764736f6c63430008140033","linkReferences":{}},"methodIdentifiers":{"A_LEFT()":"5ae56652","A_LEFT_EXP()":"29084376","A_RIGHT()":"74070c25","A_RIGHT_EXP()":"d6cafa62","B_LEFT()":"a2f82787","B_LEFT_EXP()":"1a2aed8d","B_RIGHT()":"7506c980","B_RIGHT_EXP()":"22607b5d","LINEAR_REGRESSION_BASIS_POINT()":"9955985e","LOWER_STOP_LIMIT()":"bd93aed4","LOWER_THRESHOLD_LIMIT()":"10cddaf2","UPPER_STOP_LIMIT()":"c4be8314","UPPER_THRESHOLD_LIMIT()":"25637f4a"},"id":9}