{"abi":[{"type":"constructor","inputs":[{"name":"_deftDexToken","type":"address","internalType":"contract IERC20"},{"name":"_rewardDistributor","type":"address","internalType":"contract IRewardDistributor"}],"stateMutability":"nonpayable"},{"type":"function","name":"CAMPAIGN_ID","inputs":[],"outputs":[{"name":"","type":"uint256","internalType":"uint256"}],"stateMutability":"view"},{"type":"function","name":"MINIMUM_SHARES","inputs":[],"outputs":[{"name":"","type":"uint256","internalType":"uint256"}],"stateMutability":"view"},{"type":"function","name":"allowance","inputs":[{"name":"owner","type":"address","internalType":"address"},{"name":"spender","type":"address","internalType":"address"}],"outputs":[{"name":"","type":"uint256","internalType":"uint256"}],"stateMutability":"view"},{"type":"function","name":"approve","inputs":[{"name":"spender","type":"address","internalType":"address"},{"name":"amount","type":"uint256","internalType":"uint256"}],"outputs":[{"name":"","type":"bool","internalType":"bool"}],"stateMutability":"nonpayable"},{"type":"function","name":"balanceOf","inputs":[{"name":"account","type":"address","internalType":"address"}],"outputs":[{"name":"","type":"uint256","internalType":"uint256"}],"stateMutability":"view"},{"type":"function","name":"decimals","inputs":[],"outputs":[{"name":"","type":"uint8","internalType":"uint8"}],"stateMutability":"view"},{"type":"function","name":"decreaseAllowance","inputs":[{"name":"spender","type":"address","internalType":"address"},{"name":"subtractedValue","type":"uint256","internalType":"uint256"}],"outputs":[{"name":"","type":"bool","internalType":"bool"}],"stateMutability":"nonpayable"},{"type":"function","name":"deftDexToken","inputs":[],"outputs":[{"name":"","type":"address","internalType":"contract IERC20"}],"stateMutability":"view"},{"type":"function","name":"deposit","inputs":[{"name":"_depositAmount","type":"uint256","internalType":"uint256"}],"outputs":[],"stateMutability":"nonpayable"},{"type":"function","name":"increaseAllowance","inputs":[{"name":"spender","type":"address","internalType":"address"},{"name":"addedValue","type":"uint256","internalType":"uint256"}],"outputs":[{"name":"","type":"bool","internalType":"bool"}],"stateMutability":"nonpayable"},{"type":"function","name":"name","inputs":[],"outputs":[{"name":"","type":"string","internalType":"string"}],"stateMutability":"view"},{"type":"function","name":"redeemPreviousRewards","inputs":[],"outputs":[],"stateMutability":"nonpayable"},{"type":"function","name":"rewardDistributor","inputs":[],"outputs":[{"name":"","type":"address","internalType":"contract IRewardDistributor"}],"stateMutability":"view"},{"type":"function","name":"sharesToTokens","inputs":[{"name":"_shares","type":"uint256","internalType":"uint256"}],"outputs":[{"name":"tokens_","type":"uint256","internalType":"uint256"}],"stateMutability":"view"},{"type":"function","name":"symbol","inputs":[],"outputs":[{"name":"","type":"string","internalType":"string"}],"stateMutability":"view"},{"type":"function","name":"tokensToShares","inputs":[{"name":"_tokens","type":"uint256","internalType":"uint256"}],"outputs":[{"name":"shares_","type":"uint256","internalType":"uint256"}],"stateMutability":"view"},{"type":"function","name":"totalShares","inputs":[],"outputs":[{"name":"","type":"uint256","internalType":"uint256"}],"stateMutability":"view"},{"type":"function","name":"totalSupply","inputs":[],"outputs":[{"name":"","type":"uint256","internalType":"uint256"}],"stateMutability":"view"},{"type":"function","name":"transfer","inputs":[{"name":"to","type":"address","internalType":"address"},{"name":"amount","type":"uint256","internalType":"uint256"}],"outputs":[{"name":"","type":"bool","internalType":"bool"}],"stateMutability":"nonpayable"},{"type":"function","name":"transferFrom","inputs":[{"name":"from","type":"address","internalType":"address"},{"name":"to","type":"address","internalType":"address"},{"name":"amount","type":"uint256","internalType":"uint256"}],"outputs":[{"name":"","type":"bool","internalType":"bool"}],"stateMutability":"nonpayable"},{"type":"function","name":"userInfo","inputs":[{"name":"","type":"address","internalType":"address"}],"outputs":[{"name":"lastBlockUpdate","type":"uint256","internalType":"uint256"}],"stateMutability":"view"},{"type":"function","name":"withdraw","inputs":[{"name":"_to","type":"address","internalType":"address"},{"name":"_sharesAmount","type":"uint256","internalType":"uint256"}],"outputs":[],"stateMutability":"nonpayable"},{"type":"event","name":"Approval","inputs":[{"name":"owner","type":"address","indexed":true,"internalType":"address"},{"name":"spender","type":"address","indexed":true,"internalType":"address"},{"name":"value","type":"uint256","indexed":false,"internalType":"uint256"}],"anonymous":false},{"type":"event","name":"Deposit","inputs":[{"name":"user","type":"address","indexed":false,"internalType":"address"},{"name":"depositAmount","type":"uint256","indexed":false,"internalType":"uint256"},{"name":"shares","type":"uint256","indexed":false,"internalType":"uint256"}],"anonymous":false},{"type":"event","name":"Transfer","inputs":[{"name":"from","type":"address","indexed":true,"internalType":"address"},{"name":"to","type":"address","indexed":true,"internalType":"address"},{"name":"value","type":"uint256","indexed":false,"internalType":"uint256"}],"anonymous":false},{"type":"event","name":"Withdraw","inputs":[{"name":"user","type":"address","indexed":false,"internalType":"address"},{"name":"recipient","type":"address","indexed":false,"internalType":"address"},{"name":"withdrawAmount","type":"uint256","indexed":false,"internalType":"uint256"},{"name":"shares","type":"uint256","indexed":false,"internalType":"uint256"}],"anonymous":false}],"bytecode":{"object":"0x60c06040523480156200001157600080fd5b5060405162001bc838038062001bc88339810160408190526200003491620001d2565b6040518060400160405280601481526020017f5374616b6564204465667444657820546f6b656e000000000000000000000000815250604051806040016040528060068152602001651cdd1119599d60d21b81525081600390816200009a9190620002b6565b506004620000a98282620002b6565b5050506001600160a01b038216620001235760405162461bcd60e51b815260206004820152603260248201527f5374616b696e673a3a636f6e7374727563746f723a3a4465667444657820746f6044820152711ad95b881a5cc81b9bdd081919599a5b995960721b60648201526084015b60405180910390fd5b6001600160a01b038116620001a15760405162461bcd60e51b815260206004820152603660248201527f5374616b696e673a3a636f6e7374727563746f723a3a5265776172644469737460448201527f72696275746f72206973206e6f7420646566696e65640000000000000000000060648201526084016200011a565b6001600160a01b039182166080521660a05262000382565b6001600160a01b0381168114620001cf57600080fd5b50565b60008060408385031215620001e657600080fd5b8251620001f381620001b9565b60208401519092506200020681620001b9565b809150509250929050565b634e487b7160e01b600052604160045260246000fd5b600181811c908216806200023c57607f821691505b6020821081036200025d57634e487b7160e01b600052602260045260246000fd5b50919050565b601f821115620002b157600081815260208120601f850160051c810160208610156200028c5750805b601f850160051c820191505b81811015620002ad5782815560010162000298565b5050505b505050565b81516001600160401b03811115620002d257620002d262000211565b620002ea81620002e3845462000227565b8462000263565b602080601f831160018114620003225760008415620003095750858301515b600019600386901b1c1916600185901b178555620002ad565b600085815260208120601f198616915b82811015620003535788860151825594840194600190910190840162000332565b5085821015620003725787850151600019600388901b60f8161c191681555b5050505050600190811b01905550565b60805160a0516117e1620003e7600039600081816102c1015281816104ab0152818161058701526109d801526000818161025c015281816104210152818161075c015281816108870152818161094e01528181610b400152610be801526117e16000f3fe608060405234801561001057600080fd5b50600436106101425760003560e01c806370a08231116100b8578063a9059cbb1161007c578063a9059cbb146102a9578063acc2166a146102bc578063b6b55f25146102e3578063dd62ed3e146102f6578063f3044ac714610309578063f3fef3a31461031c57600080fd5b806370a082311461021d57806395d89b4114610246578063a1a47d711461024e578063a2be88f314610257578063a457c2d71461029657600080fd5b806326c07fd71161010a57806326c07fd7146101cd57806327def4fd146101d5578063313ce567146101e857806339509351146101f75780633a98ef391461020a5780634044a9b61461021357600080fd5b806306fdde0314610147578063095ea7b31461016557806318160ddd146101885780631959a0021461019a57806323b872dd146101ba575b600080fd5b61014f61032f565b60405161015c9190611518565b60405180910390f35b610178610173366004611567565b6103c1565b604051901515815260200161015c565b6002545b60405190815260200161015c565b61018c6101a8366004611591565b60056020526000908152604090205481565b6101786101c83660046115ac565b6103db565b61018c600081565b61018c6101e33660046115e8565b6103ff565b6040516012815260200161015c565b610178610205366004611567565b61053b565b61018c60065481565b61021b61055d565b005b61018c61022b366004611591565b6001600160a01b031660009081526020819052604090205490565b61014f6105fd565b61018c6103e881565b61027e7f000000000000000000000000000000000000000000000000000000000000000081565b6040516001600160a01b03909116815260200161015c565b6101786102a4366004611567565b61060c565b6101786102b7366004611567565b61068c565b61027e7f000000000000000000000000000000000000000000000000000000000000000081565b61021b6102f13660046115e8565b61069a565b61018c610304366004611601565b610901565b61018c6103173660046115e8565b61092c565b61021b61032a366004611567565b610a61565b60606003805461033e90611634565b80601f016020809104026020016040519081016040528092919081815260200182805461036a90611634565b80156103b75780601f1061038c576101008083540402835291602001916103b7565b820191906000526020600020905b81548152906001019060200180831161039a57829003601f168201915b5050505050905090565b6000336103cf818585610c5c565b60019150505b92915050565b6000336103e9858285610d81565b6103f4858585610dfb565b506001949350505050565b6040516370a0823160e01b815230600482015260009081906001600160a01b037f000000000000000000000000000000000000000000000000000000000000000016906370a0823190602401602060405180830381865afa158015610468573d6000803e3d6000fd5b505050506040513d601f19601f8201168201806040525081019061048c919061166e565b604051634c4b4f4160e11b8152600060048201523060248201529091507f00000000000000000000000000000000000000000000000000000000000000006001600160a01b0316906398969e8290604401602060405180830381865afa1580156104fa573d6000803e3d6000fd5b505050506040513d601f19601f8201168201806040525081019061051e919061166e565b610528908261169d565b90506105348382610f9f565b9392505050565b6000336103cf81858561054e8383610901565b610558919061169d565b610c5c565b6040516338d98bbd60e11b81526000600482018190526024820152306044820181905260648201527f00000000000000000000000000000000000000000000000000000000000000006001600160a01b0316906371b3177a90608401602060405180830381865afa1580156105d6573d6000803e3d6000fd5b505050506040513d601f19601f820116820180604052508101906105fa919061166e565b50565b60606004805461033e90611634565b6000338161061a8286610901565b90508381101561067f5760405162461bcd60e51b815260206004820152602560248201527f45524332303a2064656372656173656420616c6c6f77616e63652062656c6f77604482015264207a65726f60d81b60648201526084015b60405180910390fd5b6103f48286868403610c5c565b6000336103cf818585610dfb565b3360009081526005602052604090205443116106c85760405162461bcd60e51b8152600401610676906116b0565b33600090815260056020526040812043905581900361073c5760405162461bcd60e51b815260206004820152602a60248201527f5374616b696e673a3a6465706f7369743a3a63616e2774206465706f736974206044820152693d32b937903a37b5b2b760b11b6064820152608401610676565b61074461055d565b6040516370a0823160e01b81523060048201526000907f00000000000000000000000000000000000000000000000000000000000000006001600160a01b0316906370a0823190602401602060405180830381865afa1580156107ab573d6000803e3d6000fd5b505050506040513d601f19601f820116820180604052508101906107cf919061166e565b905060006107dd8383610fd9565b905060006006546000036107fe576107f76103e883611721565b9050610801565b50805b806000036108625760405162461bcd60e51b815260206004820152602860248201527f5374616b696e673a3a6465706f7369743a3a6e6f206e657720736861726573206044820152671c9958d95a5d995960c21b6064820152608401610676565b8160066000828254610874919061169d565b909155506108af90506001600160a01b037f000000000000000000000000000000000000000000000000000000000000000016333087611006565b6108b93383611071565b60408051338152602081018690529081018290527f90890809c654f11d6e72a28fa60149770a0d11ec6c92319d6ceb2bb0a4ea1a15906060015b60405180910390a150505050565b6001600160a01b03918216600090815260016020908152604080832093909416825291909152205490565b6040516370a0823160e01b815230600482015260009081906001600160a01b037f000000000000000000000000000000000000000000000000000000000000000016906370a0823190602401602060405180830381865afa158015610995573d6000803e3d6000fd5b505050506040513d601f19601f820116820180604052508101906109b9919061166e565b604051634c4b4f4160e11b8152600060048201523060248201529091507f00000000000000000000000000000000000000000000000000000000000000006001600160a01b0316906398969e8290604401602060405180830381865afa158015610a27573d6000803e3d6000fd5b505050506040513d601f19601f82011682018060405250810190610a4b919061166e565b610a55908261169d565b90506105348382610fd9565b336000908152600560205260409020544311610a8f5760405162461bcd60e51b8152600401610676906116b0565b336000908152600560205260408120439055819003610b165760405162461bcd60e51b815260206004820152603f60248201527f5374616b696e673a3a77697468647261773a3a63616e2774207769746864726160448201527f77206d6f7265207468616e207573657220736861726573206f72207a65726f006064820152608401610676565b610b203382611130565b610b2861055d565b6040516370a0823160e01b81523060048201526000907f00000000000000000000000000000000000000000000000000000000000000006001600160a01b0316906370a0823190602401602060405180830381865afa158015610b8f573d6000803e3d6000fd5b505050506040513d601f19601f82011682018060405250810190610bb3919061166e565b90506000610bc18383610f9f565b90508260066000828254610bd59190611721565b90915550610c0f90506001600160a01b037f000000000000000000000000000000000000000000000000000000000000000016858361125f565b604080513381526001600160a01b0386166020820152908101829052606081018490527ff341246adaac6f497bc2a656f546ab9e182111d630394f0c57c710a59a2cb567906080016108f3565b6001600160a01b038316610cbe5760405162461bcd60e51b8152602060048201526024808201527f45524332303a20617070726f76652066726f6d20746865207a65726f206164646044820152637265737360e01b6064820152608401610676565b6001600160a01b038216610d1f5760405162461bcd60e51b815260206004820152602260248201527f45524332303a20617070726f766520746f20746865207a65726f206164647265604482015261737360f01b6064820152608401610676565b6001600160a01b0383811660008181526001602090815260408083209487168084529482529182902085905590518481527f8c5be1e5ebec7d5bd14f71427d1e84f3dd0314c0f7b2291e5b200ac8c7c3b92591015b60405180910390a3505050565b6000610d8d8484610901565b90506000198114610df55781811015610de85760405162461bcd60e51b815260206004820152601d60248201527f45524332303a20696e73756666696369656e7420616c6c6f77616e63650000006044820152606401610676565b610df58484848403610c5c565b50505050565b6001600160a01b038316610e5f5760405162461bcd60e51b815260206004820152602560248201527f45524332303a207472616e736665722066726f6d20746865207a65726f206164604482015264647265737360d81b6064820152608401610676565b6001600160a01b038216610ec15760405162461bcd60e51b815260206004820152602360248201527f45524332303a207472616e7366657220746f20746865207a65726f206164647260448201526265737360e81b6064820152608401610676565b6001600160a01b03831660009081526020819052604090205481811015610f395760405162461bcd60e51b815260206004820152602660248201527f45524332303a207472616e7366657220616d6f756e7420657863656564732062604482015265616c616e636560d01b6064820152608401610676565b6001600160a01b03848116600081815260208181526040808320878703905593871680835291849020805487019055925185815290927fddf252ad1be2c89b69c2b068fc378daa952ba7f163c4a11628f55a4df523b3ef910160405180910390a3610df5565b6000600654600003610fc257610fbd670de0b6b3a764000084611734565b610534565b600654610fcf8385611756565b6105349190611734565b6000600654600003610ff757610fbd670de0b6b3a764000084611756565b8160065484610fcf9190611756565b6040516001600160a01b0380851660248301528316604482015260648101829052610df59085906323b872dd60e01b906084015b60408051601f198184030181529190526020810180516001600160e01b03166001600160e01b03199093169290921790915261128f565b6001600160a01b0382166110c75760405162461bcd60e51b815260206004820152601f60248201527f45524332303a206d696e7420746f20746865207a65726f2061646472657373006044820152606401610676565b80600260008282546110d9919061169d565b90915550506001600160a01b038216600081815260208181526040808320805486019055518481527fddf252ad1be2c89b69c2b068fc378daa952ba7f163c4a11628f55a4df523b3ef910160405180910390a35050565b6001600160a01b0382166111905760405162461bcd60e51b815260206004820152602160248201527f45524332303a206275726e2066726f6d20746865207a65726f206164647265736044820152607360f81b6064820152608401610676565b6001600160a01b038216600090815260208190526040902054818110156112045760405162461bcd60e51b815260206004820152602260248201527f45524332303a206275726e20616d6f756e7420657863656564732062616c616e604482015261636560f01b6064820152608401610676565b6001600160a01b0383166000818152602081815260408083208686039055600280548790039055518581529192917fddf252ad1be2c89b69c2b068fc378daa952ba7f163c4a11628f55a4df523b3ef9101610d74565b505050565b6040516001600160a01b03831660248201526044810182905261125a90849063a9059cbb60e01b9060640161103a565b60006112e4826040518060400160405280602081526020017f5361666545524332303a206c6f772d6c6576656c2063616c6c206661696c6564815250856001600160a01b03166113649092919063ffffffff16565b9050805160001480611305575080806020019051810190611305919061176d565b61125a5760405162461bcd60e51b815260206004820152602a60248201527f5361666545524332303a204552433230206f7065726174696f6e20646964206e6044820152691bdd081cdd58d8d9595960b21b6064820152608401610676565b6060611373848460008561137b565b949350505050565b6060824710156113dc5760405162461bcd60e51b815260206004820152602660248201527f416464726573733a20696e73756666696369656e742062616c616e636520666f6044820152651c8818d85b1b60d21b6064820152608401610676565b600080866001600160a01b031685876040516113f8919061178f565b60006040518083038185875af1925050503d8060008114611435576040519150601f19603f3d011682016040523d82523d6000602084013e61143a565b606091505b509150915061144b87838387611456565b979650505050505050565b606083156114c55782516000036114be576001600160a01b0385163b6114be5760405162461bcd60e51b815260206004820152601d60248201527f416464726573733a2063616c6c20746f206e6f6e2d636f6e74726163740000006044820152606401610676565b5081611373565b61137383838151156114da5781518083602001fd5b8060405162461bcd60e51b81526004016106769190611518565b60005b8381101561150f5781810151838201526020016114f7565b50506000910152565b60208152600082518060208401526115378160408501602087016114f4565b601f01601f19169190910160400192915050565b80356001600160a01b038116811461156257600080fd5b919050565b6000806040838503121561157a57600080fd5b6115838361154b565b946020939093013593505050565b6000602082840312156115a357600080fd5b6105348261154b565b6000806000606084860312156115c157600080fd5b6115ca8461154b565b92506115d86020850161154b565b9150604084013590509250925092565b6000602082840312156115fa57600080fd5b5035919050565b6000806040838503121561161457600080fd5b61161d8361154b565b915061162b6020840161154b565b90509250929050565b600181811c9082168061164857607f821691505b60208210810361166857634e487b7160e01b600052602260045260246000fd5b50919050565b60006020828403121561168057600080fd5b5051919050565b634e487b7160e01b600052601160045260246000fd5b808201808211156103d5576103d5611687565b6020808252604b908201527f5374616b696e673a3a636865636b55736572426c6f636b3a3a5573657220616c60408201527f72656164792063616c6c6564206465706f736974206f7220776974686472617760608201526a207468697320626c6f636b60a81b608082015260a00190565b818103818111156103d5576103d5611687565b60008261175157634e487b7160e01b600052601260045260246000fd5b500490565b80820281158282048414176103d5576103d5611687565b60006020828403121561177f57600080fd5b8151801515811461053457600080fd5b600082516117a18184602087016114f4565b919091019291505056fea2646970667358221220742e637c7f1f90ff4a6efca1e0f324cd17c53a5d6f7068c884b4c9b85c5c7d1c64736f6c63430008140033","linkReferences":{}},"methodIdentifiers":{"CAMPAIGN_ID()":"26c07fd7","MINIMUM_SHARES()":"a1a47d71","allowance(address,address)":"dd62ed3e","approve(address,uint256)":"095ea7b3","balanceOf(address)":"70a08231","decimals()":"313ce567","decreaseAllowance(address,uint256)":"a457c2d7","deftDexToken()":"a2be88f3","deposit(uint256)":"b6b55f25","increaseAllowance(address,uint256)":"39509351","name()":"06fdde03","redeemPreviousRewards()":"4044a9b6","rewardDistributor()":"acc2166a","sharesToTokens(uint256)":"27def4fd","symbol()":"95d89b41","tokensToShares(uint256)":"f3044ac7","totalShares()":"3a98ef39","totalSupply()":"18160ddd","transfer(address,uint256)":"a9059cbb","transferFrom(address,address,uint256)":"23b872dd","userInfo(address)":"1959a002","withdraw(address,uint256)":"f3fef3a3"},"id":2}